:020000040800F2
:10400000FFFF012041540108D9DD0008DBDD000875
:1040100009DF000821DF000839DF00080000000088
:1040200000000000000000000000000071DC020839
:1040300051DF00080000000011DD0208C9DD0008A2
:10404000C1540108C1540108C1540108C1540108F8
:10405000C1540108C154010809B6000829B6000876
:1040600049B6000869B600088DB6000871C7000897
:10407000C154010895C70008C1540108C154010882
:104080008D05010895EA0008C1540108C1540108D2
:10409000C1540108C1540108C1540108B5B6000853
:1040A000C1540108C1540108C1540108C154010898
:1040B000C1540108C1540108C154010865C7000872
:1040C00059C70008C1540108C1540108C15401086E
:1040D000C1540108C1540108F5EA0008F9E60008D6
:1040E00091B70008C1540108C1540108C154010826
:1040F000C154010885B30008C1540108C154010826
:10410000C1540108C1540108C1540108C154010837
:10411000C1540108C1540108C1540108E553010804
:10412000655B0008C1540108C1540108C15401086D
:10413000C1540108C1540108C1540108C154010807
:10414000C1540108C1540108C1540108CDDD000863
:10415000FD5A0008C154010859F1000855F1000842
:1041600089C700087DC70008C1540108C15401086F
:10417000C1540108C1540108C1540108C1540108C7
:08418000C1540108C1540108FB
:1041C000844641EA000313F003036DD1403A41D322
:1041D00051F8043B40F8043B51F8043B40F8043BE1
:1041E00051F8043B40F8043B51F8043B40F8043BD1
:1041F00051F8043B40F8043B51F8043B40F8043BC1
:1042000051F8043B40F8043B51F8043B40F8043BB0
:1042100051F8043B40F8043B51F8043B40F8043BA0
:1042200051F8043B40F8043B51F8043B40F8043B90
:1042300051F8043B40F8043B51F8043B40F8043B80
:1042400051F8043B40F8043B51F8043B40F8043B70
:10425000403ABDD2303211D351F8043B40F8043B10
:1042600051F8043B40F8043B51F8043B40F8043B50
:1042700051F8043B40F8043B103AEDD20C3205D320
:1042800051F8043B40F8043B043AF9D2043208D018
:10429000D2071CBF11F8013B00F8013B01D30B888A
:1042A00003806046704700BF082A13D38B078DD068
:1042B00010F003038AD0C3F10403D21ADB071CBF3A
:1042C00011F8013B00F8013B80D331F8023B20F8A4
:1042D000023B7BE7043AD9D3013A11F8013B00F8DD
:1042E000013BF9D20B7803704B7843708B78837065
:1042F0006046704700000000000000000000000061
:10430000A2EB0300704700BF02780B78012A28BF98
:104310009A42F5D16DE9044540EA0104CDE902670E
:104320006FF0000C4FEA447212B380EA010414F0FB
:10433000070F6AD100F0070420F0070004F003051E
:1043400021F007014FEAC505F0E8042314F0040F3B
:10435000F1E804670CFA05F462EA040266EA04066E
:104360000AD063EA0403624667EA0407664603E08C
:10437000F0E80423F1E8046782FA4CF582EA0604C7
:10438000A4FA8CF46CBB83FA4CF583EA0705A5FA12
:104390008CF595B950E9022351E9026782FA4CF590
:1043A00082EA0604A4FA8CF483FA4CF583EA070542
:1043B000A5FA8CF52543DBD09CB92DBAB5FA85F466
:1043C00024F0070427FA04F1DDE9026723FA04F375
:1043D00003F0FF0001F0FF01FDE80445A0EB010040
:1043E000704724BAB4FA84F424F0070426FA04F1DE
:1043F000DDE9026722FA04F202F0FF0001F0FF019A
:10440000FDE80445A0EB0100704714F0030F3CD118
:1044100010F0030428D150F8082B51F8083B82FA19
:104420004CF582EA0305A5FA8CF55DB950F8042C29
:1044300051F8043C82FA4CF582EA0305A5FA8CF5A2
:10444000002DE8D02DBAB5FA85F424F0070423FA3C
:1044500004F122FA04F202F0FF0001F0FF01FDE88E
:104460000445A0EB010070474FEAC40420F00300AC
:1044700050F8082B21F0030151F8083B0CFA04F422
:1044800062EA040263EA0403C9E710F003041AD0E5
:10449000A1EB040120F00300E40750F8042B06D040
:1044A0000FD28B785FFAA2F4E41A06D12BB1CB7845
:1044B0005FFAB2F4E41A00D11BB920465DF8104B44
:1044C000704701F1040150F8042BCC0721F00301DF
:1044D00051F8043B48D824D222F07F4482FA4CF5AC
:1044E00094EA1325A5FA8CF50AD165B951F8043B75
:1044F00084EA0204B4EB036F0ED150F8042BEBE70F
:104500004FEA132355E035F07F454DD10878FDE89B
:104510000445C0F1000070474FEA126203F0FF0348
:1045200047E002EA1C4482FA4CF594EA1345A5FAE6
:104530008CF50AD165B951F8043B84EA0204B4EB66
:10454000034F0CD150F8042BEBE74FEA134330E054
:1045500015EA1C4528D10B884FEA124229E04FEAA0
:10456000124203EA1C4324E002F0FF0482FA4CF5F5
:1045700094EA1365A5FA8CF50AD165B951F8043BA4
:1045800084EA0204B4EB032F09D150F8042BEBE7C3
:104590004FEA13630DE015F0FF0F05D10B684FEAEA
:1045A000122223F07F4304E04FF00000FDE80445B1
:1045B000704712BA1BBA82FA4CF482EA0304A4FAD6
:1045C0008CF5B5FA85F402FA04F203FA04F34FEA23
:1045D0001260FDE80445A0EB136070470000000086
:1045E00000000000000000000000000000000000CB
:1045F00000000000000000000000000000000000BB
:1046000090F800F06DE9024520F007016FF0000C12
:1046100010F0070491F820F040F049804FF00004BA
:104620006FF00700D1E9002391F840F000F1080095
:1046300082FA4CF2A4FA8CF283FA4CF3A2FA8CF3CD
:104640004BBBD1E9022382FA4CF200F10800A4FA34
:104650008CF283FA4CF3A2FA8CF3E3B9D1E9042388
:1046600082FA4CF200F10800A4FA8CF283FA4CF3BF
:10467000A2FA8CF37BB9D1E9062301F1200182FA79
:104680004CF200F10800A4FA8CF283FA4CF3A2FA7F
:104690008CF3002BC6D0002A04BF04301A4612BA8D
:1046A000B2FA82F2FDE8024500EBD2007047D1E990
:1046B000002304F00305C4F100004FEAC50514F01F
:1046C000040F91F840F00CFA05F562EA05021CBFF0
:1046D00063EA050362464FF00004A9E781F0004158
:1046E00002E000BF83F0004330B54FEA41044FEAD7
:1046F000430594EA050F08BF90EA020F1FBF54EA72
:10470000000C55EA020C7FEA645C7FEA655C00F00D
:10471000E2804FEA5454D4EB5555B8BF6D420CDDDE
:104720002C4480EA020281EA030382EA000083EA61
:10473000010180EA020281EA0303362D88BF30BD01
:1047400011F0004F4FEA01314FF4801C4CEA113157
:1047500002D0404261EB410113F0004F4FEA0333B6
:104760004CEA133302D0524263EB430394EA050F41
:1047700000F0A780A4F10104D5F1200E0DDB02FAB0
:104780000EFC22FA05F2801841F1000103FA0EF244
:10479000801843FA05F359410EE0A5F120050EF10A
:1047A000200E012A03FA0EFC28BF4CF0020C43FA3B
:1047B00005F3C01851EBE37101F0004507D54FF048
:1047C000000EDCF1000C7EEB00006EEB0101B1F598
:1047D000801F1BD3B1F5001F0CD349085FEA3000DE
:1047E0004FEA3C0C04F101044FEA445212F5800FE9
:1047F00080F09A80BCF1004F08BF5FEA500C50F186
:10480000000041EB045141EA050130BD5FEA4C0C68
:10481000404141EB0101013C28BFB1F5801FE9D2C5
:1048200091F0000F04BF01460020B1FA81F308BFE8
:104830002033A3F10B03B3F120020CDA0C3208DDB4
:1048400002F1140CC2F10C0201FA0CF021FA02F18F
:104850000CE002F11402D8BFC2F1200C01FA02F1FF
:1048600020FA0CFCDCBF41EA0C019040E41AA2BF24
:1048700001EB0451294330BD6FEA04041F3C1CDAEC
:104880000C340EDC04F11404C4F1200220FA04F00C
:1048900001FA02F340EA030021FA04F345EA0301B6
:1048A00030BDC4F10C04C4F1200220FA02F001FA78
:1048B00004F340EA0300294630BD21FA04F02946FA
:1048C00030BD94F0000F83F4801306BF81F4801193
:1048D0000134013D4EE77FEA645C18BF7FEA655C06
:1048E00029D094EA050F08BF90EA020F05D054EAD8
:1048F000000C04BF1946104630BD91EA030F1EBFDD
:104900000021002030BD5FEA545C05D140004941E0
:1049100028BF41F0004130BD14F580043CBF01F5D3
:10492000801130BD01F0004545F0FE4141F47001B9
:104930004FF0000030BD7FEA645C1ABF1946104694
:104940007FEA655C1CBF0B46024650EA013406BF95
:1049500052EA033591EA030F41F4002130BD00BF54
:1049600090F0000F04BF0021704730B54FF4806411
:1049700004F132044FF000054FF0000150E700BF92
:1049800090F0000F04BF0021704730B54FF48064F1
:1049900004F1320410F0004548BF40424FF00001DE
:1049A0003EE700BF42004FEAE2014FEA31014FEA21
:1049B00002701FBF12F07F4393F07F4F81F0605170
:1049C000704732F07F4208BF704793F07F4F04BFBB
:1049D00041F40021704730B54FF4607401F0004598
:1049E00021F000411CE700BF50EA010208BF7047F8
:1049F00030B54FF000050AE050EA010208BF7047E9
:104A000030B511F0004502D5404261EB41014FF451
:104A1000806404F132045FEA915C3FF4D8AE4FF059
:104A200003025FEADC0C18BF03325FEADC0C18BF3C
:104A3000033202EBDC02C2F1200300FA03FC20FA8D
:104A400002F001FA03FE40EA0E0021FA02F11444DA
:104A5000BDE600BF70B54FF0FF0C4CF4E06C1CEAF3
:104A600011541DBF1CEA135594EA0C0F95EA0C0F64
:104A700000F0DEF82C4481EA030621EA4C5123EAD7
:104A80004C5350EA013518BF52EA033541F4801106
:104A900043F4801338D0A0FB02CE4FF00005E1FBB9
:104AA00002E506F00042E0FB03E54FF00006E1FB03
:104AB00003569CF0000F18BF4EF0010EA4F1FF0446
:104AC000B6F5007F64F5407404D25FEA4E0E6D4186
:104AD00046EB060642EAC62141EA55514FEAC52097
:104AE00040EA5E504FEACE2EB4F1FD0C88BFBCF513
:104AF000E06F1ED8BEF1004F08BF5FEA500E50F1C4
:104B0000000041EB045170BD06F0004646EA010189
:104B100040EA020081EA0301B4EB5C04C2BFD4EBBB
:104B20000C0541EA045170BD41F480114FF0000EB4
:104B3000013C00F3AB8014F1360FDEBF002001F022
:104B4000004170BDC4F10004203C35DA0C341BDC9C
:104B500004F11404C4F1200500FA05F320FA04F06E
:104B600001FA05F240EA020001F0004221F00041A2
:104B700010EBD37021FA04F642EB06015EEA430E15
:104B800008BF20EAD37070BDC4F10C04C4F1200545
:104B900000FA04F320FA05F001FA04F240EA0200F8
:104BA00001F0004110EBD37041F100015EEA430EC9
:104BB00008BF20EAD37070BDC4F1200500FA05F2E9
:104BC0004EEA020E20FA04F301FA05F243EA020368
:104BD00021FA04F001F0004121FA04F220EA020077
:104BE00000EBD3705EEA430E08BF20EAD37070BDBD
:104BF00094F0000F0FD101F00046400041EB01019D
:104C000011F4801F08BF013CF7D041EA060195F07E
:104C1000000F18BF704703F00046520043EB030338
:104C200013F4801F08BF013DF7D043EA0603704725
:104C300094EA0C0F0CEA135518BF95EA0C0F0CD030
:104C400050EA410618BF52EA4306D1D181EA030176
:104C500001F000414FF0000070BD50EA410606BF70
:104C60001046194652EA430619D094EA0C0F02D1B5
:104C700050EA013613D195EA0C0F05D152EA0336FA
:104C80001CBF104619460AD181EA030101F0004118
:104C900041F0FE4141F470014FF0000070BD41F061
:104CA000FE4141F4780170BD70B54FF0FF0C4CF43B
:104CB000E06C1CEA11541DBF1CEA135594EA0C0F5A
:104CC00095EA0C0F00F0A7F8A4EB050481EA030EA7
:104CD00052EA03354FEA013100F088804FEA03338E
:104CE0004FF0805545EA131343EA12634FEA02225C
:104CF00045EA111545EA10654FEA00260EF000411D
:104D00009D4208BF964244F1FD0404F5407402D26E
:104D10005B084FEA3202B61A65EB03055B084FEAFF
:104D200032024FF480104FF4002CB6EB020E75EBFC
:104D3000030E22BFB61A754640EA0C005B084FEA24
:104D40003202B6EB020E75EB030E22BFB61A7546A1
:104D500040EA5C005B084FEA3202B6EB020E75EBEC
:104D6000030E22BFB61A754640EA9C005B084FEA64
:104D70003202B6EB020E75EB030E22BFB61A754671
:104D800040EADC0055EA060E18D04FEA051545EA60
:104D900016754FEA06164FEAC30343EA52734FEA09
:104DA000C2025FEA1C1CC0D111F4801F0BD141EA82
:104DB00000014FF000004FF0004CB6E711F4801FE7
:104DC00004BF01430020B4F1FD0C88BFBCF5E06FC7
:104DD0003FF6AFAEB5EB030C04BFB6EB020C5FEAD7
:104DE000500C50F1000041EB045170BD0EF0004E2C
:104DF0004EEA113114EB5C04C2BFD4EB0C0541EA5E
:104E0000045170BD41F480114FF0000E013C90E65A
:104E100045EA060E8DE60CEA135594EA0C0F08BF1E
:104E200095EA0C0F3FF43BAF94EA0C0F0AD150EA1D
:104E300001347FF434AF95EA0C0F7FF425AF1046B0
:104E400019462CE795EA0C0F06D152EA03353FF4D8
:104E5000FDAE1046194622E750EA410618BF52EA55
:104E600043067FF4C5AE50EA41047FF40DAF52EA29
:104E700043057FF4EBAE12E74FF0FF3C06E000BFC6
:104E80004FF0010C02E000BF4FF0010C4DF804CDD3
:104E90004FEA410C7FEA6C5C4FEA430C18BF7FEA93
:104EA0006C5C1BD001B050EA410C0CBF52EA430CC1
:104EB00091EA030F02BF90EA020F0020704710F141
:104EC000000F91EA030F58BF994208BF90422CBFD0
:104ED000D8176FEAE37040F0010070474FEA410CC9
:104EE0007FEA6C5C02D150EA013C07D14FEA430CE7
:104EF0007FEA6C5CD6D152EA033CD3D05DF8040B58
:104F0000704700BF8446104662468C461946634689
:104F100000E000BF01B5FFF7B7FF002848BF10F160
:104F2000000F01BD4DF808EDFFF7F4FF0CBF0120A5
:104F300000205DF808FB00BF4DF808EDFFF7EAFF21
:104F400034BF012000205DF808FB00BF4DF808EDDC
:104F5000FFF7E0FF94BF012000205DF808FB00BFD1
:104F60004DF808EDFFF7CEFF94BF012000205DF85B
:104F700008FB00BF4DF808EDFFF7C4FF34BF012068
:104F800000205DF808FB00BF4A0011D212F50012A4
:104F900011D20DD56FF47873B3EB62520ED44FEA91
:104FA000C12343F0004343EA505323FA02F0704711
:104FB0004FF00000704750EA013002D14FF0FF304F
:104FC00070474FF0000070474FEA4102B2F1E043F2
:104FD00024BFB3F5001CDCF1FE5C0DD901F0004CE0
:104FE0004FEAC0024CEA5070B2F1004F40EB830030
:104FF00008BF20F00100704711F0804F21D113F15C
:105000003872BCBF01F00040704741F480114FEA94
:105010005252C2F11802C2F1200C10FA0CF320FA1D
:1050200002F018BF40F001004FEAC1234FEAD3233A
:1050300003FA0CFC40EA0C0023FA02F34FEA4303A4
:10504000CCE77FEA625307D150EA01331EBF4FF02D
:10505000FE4040F44000704701F0004040F0FE4048
:1050600040F40000704700BF80F0004002E000BF45
:1050700081F0004142001FBF5FEA410392EA030F43
:105080007FEA226C7FEA236C6AD04FEA1262D2EB8D
:105090001363C1BFD218414048404140B8BF5B4292
:1050A000192B88BF704710F0004F40F4000020F02B
:1050B0007F4018BF404211F0004F41F4000121F041
:1050C0007F4118BF494292EA030F3FD0A2F101028B
:1050D00041FA03FC10EB0C00C3F1200301FA03F1C9
:1050E00000F0004302D5494260EB4000B0F5000FEC
:1050F00013D3B0F1807F06D340084FEA310102F1AB
:105100000102FE2A51D2B1F1004F40EBC25008BF5C
:1051100020F0010040EA03007047490040EB000026
:10512000013A28BFB0F5000FEDD2B0FA80FCACF127
:10513000080CB2EB0C0200FA0CF0AABF00EBC25054
:1051400052421843BCBFD0401843704792F0000F42
:1051500081F4000106BF80F400000132013BB5E795
:105160004FEA41037FEA226C18BF7FEA236C21D00B
:1051700092EA030F04D092F0000F08BF0846704770
:1051800090EA010F1CBF0020704712F07F4F04D13E
:10519000400028BF40F00040704712F100723CBF51
:1051A00000F50000704700F0004343F0FE4040F47B
:1051B000000070477FEA226216BF08467FEA236339
:1051C0000146420206BF5FEA412390EA010F40F424
:1051D000800070474FF0000304E000BF10F0004370
:1051E00048BF40425FEA000C08BF704743F0964357
:1051F00001464FF000001CE050EA010208BF704772
:105200004FF000030AE000BF50EA010208BF7047F8
:1052100011F0004302D5404261EB41015FEA010C0D
:1052200002BF84460146002043F0B64308BFA3F105
:105230008053A3F50003BCFA8CF2083AA3EBC253E7
:1052400010DB01FA02FC634400FA02FCC2F1200206
:10525000BCF1004F20FA02F243EB020008BF20F03D
:105260000100704702F1200201FA02FCC2F12002A3
:1052700050EA4C0021FA02F243EB020008BF20EA98
:10528000DC70704753B94AB9002908BF00281CBF19
:105290004FF0FF314FF0FF3000F0ECB9ADF1080CEA
:1052A0006DE904CE00F084F8DDF804E0DDE90223C6
:1052B00004B07047430803F05533C01A830803F065
:1052C000333300F03330184400EB101000F00F308F
:1052D00000EB002000EB0040000E704707EE900A44
:1052E000F5EEC07AF1EE10FA01D400F023B8F1EE39
:1052F000677A08B517EE900A00F01CF8404261EB9F
:10530000410108BD38B50022002304460D46FFF7D1
:1053100013FE28B920462946BDE8384000F02AB8D7
:10532000204605F1004100F025F8404261EB4101C3
:1053300038BD00BFD0B5FFF735FB0C4B0022064649
:105340000F46FFF787FBFFF71FFE0446FFF708FB3A
:10535000074B0022FFF77EFB02460B4630463946DC
:10536000FFF7C0F9FFF710FE2146D0BD0000F03D69
:105370000000F041D0B50C4B002206460F46FFF767
:1053800069FBFFF701FE0446FFF7EAFA074B00222C
:10539000FFF760FB02460B4630463946FFF7A2F99D
:1053A000FFF7F2FD2146D0BD0000F03D0000F041C6
:1053B0002DE9F047089D04468C46002B40F0838081
:1053C0008A42174647D9B2FA82F242B1C2F12000AE
:1053D00024FA00F09140974040EA010C94404FEAD3
:1053E0001748230CBCFBF8F61FFA87FE08FB16C112
:1053F00043EA014306FB0EF1994209D9FB1806F175
:10540000FF3080F01981994240F21681023E3B4400
:105410005B1AA4B2B3FBF8F008FB103344EA034470
:1054200000FB0EFEA64509D93C1900F1FF3380F0C0
:105430000581A64540F2028102383C4440EA06401C
:10544000A4EB0E0400261DB1D4400023C5E900439F
:105450003146BDE8F08702B9FFDEB2FA82F2002AD7
:1054600050D1CB1B4FEA174E1FFA87F80126B3FB2A
:10547000FEFC210C0EFB1C3341EA034108FB0CF33C
:105480008B4207D979180CF1FF3002D28B4200F21F
:10549000E9808446C91AA3B2B1FBFEF00EFB1011DD
:1054A00043EA014408FB00F8A04507D93C1900F184
:1054B000FF3302D2A04500F2D9801846A4EB0804BD
:1054C00040EA0C40BFE78B4209D9002D00F0B180C3
:1054D0000026C5E9000130463146BDE8F087B3FA41
:1054E00083F6002E4AD18B4202D3824200F2B8806A
:1054F000841A61EB030101208C46002DA8D0C5E978
:10550000004CA5E7C2F1200320FA03F6974001FA08
:1055100002F04FEA174ED9403043030CB1FBFEF6C0
:105520001FFA87F80EFB161143EA014306FB08F148
:10553000994204FA02F409D9FB1806F1FF3C80F005
:105540008D80994240F28A80023E3B445B1A81B2D0
:10555000B3FBFEF00EFB103341EA034100FB08F3FE
:105560008B4207D9791800F1FF3C73D28B4271D975
:1055700002383944CB1A40EA064678E7C6F1200CD7
:1055800003FA06F422FA0CF31C4320FA0CF701FA92
:1055900006F34FEA144E21FA0CF11F433B0CB1FB0A
:1055A000FEF91FFA84F80EFB191143EA014109FBC9
:1055B00008FA8A4502FA06F200FA06F308D96118D9
:1055C00009F1FF3048D28A4546D9A9F102092144A0
:1055D000A1EB0A01BFB2B1FBFEF00EFB101147EACE
:1055E000014700FB08F8B84507D9E71900F1FF317A
:1055F0002ED2B8452CD90238274440EA0940A7EBFF
:105600000807A0FB02894F45C64649461AD317D062
:105610005DB1B3EB0E0267EB010707FA0CFCF24039
:105620004CEA0202F740C5E9002700263146BDE8F2
:10563000F0872E4628460BE70646E9E61846FDE6C3
:105640004345E5D2B8EB020E69EB04010138DFE710
:105650000846D2E760468DE78146B9E7664675E7BA
:1056600030464AE7ACF1020C394413E702383C44B7
:1056700024E700BF704700BF13B5C3B20C20154A22
:10568000584314180121105812F056F9684611F0C9
:1056900097FF2389009340F203136068ADF804304C
:1056A000694600238DF8073011F048FF01230A48AE
:1056B000A17A1A4611F04DFD074811F088FD064801
:1056C000022111F08CFD0028F9D0034811F084FD6F
:1056D00002B010BD34560308002101407FB5144AC2
:1056E0000123834008281360124B1AD00A2815D0D2
:1056F000062819D000221A601B6800930023CDE908
:105700000233ADF8043004930B48012369468DF849
:10571000143011F0CBFC07B05DF804FB4FF0807241
:10572000E9E74FF00072E6E74FF04072E3E700BFB1
:10573000201C0020241C00200021014000B58BB05B
:1057400011F0A6FC04A811F0D7FC684611F0F2FC99
:1057500001214FF4007012F013F900236846CDE9DF
:105760000033CDE9023311F0D1FC0C20FFF7B6FF76
:105770000348012111F0E4FC0BB05DF804FB00BF0D
:105780000021014038B5FFF777FFFFF7F9F8002255
:10579000094BFFF75FF9094B044618680D46FFF700
:1057A000DFF802460B4620462946FFF77DFAFFF751
:1057B0000BFC00EE100A38BD00000840201C002041
:1057C000F7B50C23164DC4B26343EF18E8580E46E4
:1057D000012112F0B1F83A8900920023012E0CBF8A
:1057E00001221A46ADF806308DF804200DD18DF84F
:1057F00006300C2000FB0455012368688DF8053045
:10580000694611F09BFE03B0F0BD022E03D0032EBB
:10581000EFD1022300E001238DF80730E9E700BF54
:1058200034560308054B0C22C0B202FB00300A1E9E
:1058300018BF01220189406811F0D2BE3456030816
:1058400008B5064B0C22C0B202FB0030018940684B
:1058500011F0BCFE431E5842584108BD345603089F
:1058600010B5044686B0104812F0CAF84FF48272A0
:105870000023ADF808200C48ADF806304FF4007254
:105880000DF10601ADF80A30ADF80C30ADF80E3070
:10589000ADF81020ADF81430ADF81630ADF8124068
:1058A00012F00AF906B010BD0030014070B50322B5
:1058B00092B00021012028F065FD414B03221860C1
:1058C0000021012028F05EFD3E4B1860012028F0E9
:1058D0006CFE3D4B012118604FF4805012F050F8DF
:1058E0000121084612F028F801214FF4800012F03F
:1058F00023F805221146354811F077FE334805227A
:10590000062111F072FE31480522072111F06DFECB
:105910002F4B2E48202201A9CDE9012311F00EFEC4
:10592000802301A929480193402611F007FE01A90F
:105930002648019611F002FE4FF48063002409937B
:10594000244B04934FF0C0654FF4003321462248A6
:105950000D93CDE90E4410940B940C9411940A9479
:105960000894079405940395069611F0FDFC03A98D
:10597000194811F0CFFC214618480694039511F000
:10598000F3FC03A9154811F0C5FC07238DF801307D
:105990008DF802404423012468468DF800308DF8CC
:1059A000034011F051FF382368468DF8003011F0A4
:1059B0004BFF2820FFF754FF094B1C7012B070BD3D
:1059C0007C1C00206C1C0020741C00200000024085
:1059D000020200020C300140886402401064024060
:1059E000291C0020F8B501F17043B3F5803F06464D
:1059F0000C46174604D22B492B48E22224F0D4FD52
:105A000007F17043B3F5803F04D226492648E322CC
:105A100024F0CAFD254DEC60254C6E600122E76044
:105A200010212846666011F0E5FC01221021204675
:105A300011F0E0FC1F49284611F0C4FC1E49204625
:105A400011F0C0FC0121284611F08EFC01212046F6
:105A500011F08AFC19480122022112F058F80122A3
:105A60001146164812F053F81448012112F043F879
:105A7000134B4FF0FF31186828F01EFF01280ED19C
:105A8000104B4FF0FF31186828F016FF431E5C42A0
:105A90005C410A48002112F02EF82046F8BD00248F
:105AA000F7E700BFD05603089397030888640240C5
:105AB00010640240400F00203D0080100030014083
:105AC0007C1C00206C1C002010B5064B04464FF0D7
:105AD000FF31186828F0F0FE2046BDE81040FFF7BF
:105AE000BFBE00BF741C00200348002300681A4694
:105AF000194628F07FBC00BF741C002013B5002499
:105B0000224613480194102111F074FC11491048E9
:105B100011F0BAFC0F490E4811F054FC22460E4811
:105B2000022111F0F4FF0A48214611F01DFC0B4B35
:105B300001A9186828F0BAFD019B3BB1084B4FF052
:105B400080521A60BFF34F8FBFF36F8F02B010BD4A
:105B50008864024000080020003001407C1C0020C6
:105B600004ED00E013B500242246134801941021EF
:105B700011F040FC1149104811F086FC0F490E4805
:105B800011F020FC22460E48012111F0C0FF0A4806
:105B9000214611F0E9FB0B4B01A9186828F086FD9E
:105BA000019B3BB1084B4FF080521A60BFF34F8FFF
:105BB000BFF36F8F02B010BD1064024020000010D0
:105BC000003001406C1C002004ED00E0064A137810
:105BD0004BB9064B06491960064B5B1A06499B10E8
:105BE0000B60012313707047881C0020801C00206C
:105BF0002C1604086C160408841C002008B5FFF756
:105C0000E5FF014B186808BD841C002070B50D46E7
:105C10000446FFF7DBFF094B1A68094B196800239C
:105C20009A4201DC002070BD51F823000678A6429C
:105C300002D14678AE42F6D00133F1E7841C002051
:105C4000801C00202DE9F0410646FFF7BFFF0B4BFB
:105C50001F680B4BD3F800800024A74203DC00250B
:105C60002846BDE8F08158F8245030466968FEF7B0
:105C70004BFB0028F4D00134EFE700BF841C002068
:105C8000801C002030B5034644680020844202DCBA
:105C90004FF0FF3030BD1A68155C8D42FAD00244D7
:105CA000527802321044F1E7014B1868704700BF88
:105CB0008C1C0020044B1B688342C3BF034B7C2217
:105CC00002FB0030002070478C1C002000000010F8
:105CD00008B5FFF7D7FFC043C00F08BDF8B50446AD
:105CE00017461D46FFF7CEFF061E10DB21688B19F5
:105CF0006C1E5A789442A8BF14460236224631449C
:105D00003846FEF75DFA00233B552046F8BD0023D8
:105D10003B704FF0FF34F8E730B51F4C8BB0236871
:105D2000CDF80A30A388ADF80E300546A3798DF87A
:105D30001030002117220DF111002FF023F954F833
:105D40001E0F0090A388ADF8043005F17004002305
:105D500001212046CDF80630FFF7BAFF30B11E23EF
:105D60000DF10A0201212046FFF7B8FF022120466B
:105D7000FFF7AEFF28B10A236A4602212046FFF74B
:105D8000ADFFAA6F054B9A4203D10549054825F09E
:105D9000B7F80BB030BD00BFD0540308005B030858
:105DA0002D57030805C901082DE9F04FA54B8BB00D
:105DB0001D7800AF7B60002D40F086807D720CF076
:105DC0002FF907F109000CF071F9064610B39E4C4B
:105DD000DFF8BCA2DFF87C92DFF8B8B2A8467B7A85
:105DE00098451DDA2346702200215FFA88F00CF0F6
:105DF000A3F9002800F0B2802378EB2B68D09349F8
:105E0000484625F07DF842465946484625F078F840
:105E1000002697E08E498F4825F072F87E720126A1
:105E20008D4CD4F8008098F800304BB38B49042295
:105E300040462FF0FBF918B3424689498548DFF800
:105E400058A2DFF81082DFF800B225F059F8216877
:105E500039603A2308467B81FEF7D2FB083020F0F8
:105E60000700E946ADEB000D396868462FF080F970
:105E700007F10A0168462FF04BFA002877D1CD468A
:105E8000784C0EB17B7A23606F4E724A4FF0000857
:105E9000B146C346C246012120688045C0F28E80CB
:105EA00001B92160DFF8F491DFF8F4B1DFF8A4A1C3
:105EB0004FF0000823689845C0F2A8800DB1002378
:105EC00023607A68012313702C37BD46BDE8F08F3C
:105ED0000721204624F01BFEE379C0B2834201D0A3
:105EE00061498DE7237A0BB1604989E7617A04F152
:105EF0000800023124F00BFE534A617A7C2303FB35
:105F000008230B44C2B29B7A9A4204D058494846AF
:105F100024F0F6FF77E704F10A03C4E91C3107F126
:105F20000A021E23012104F17000FFF7D7FE6079F9
:105F300060B1A179FFF76AFE00B94E48A06720461C
:105F4000FFF7EAFE08F101087C3448E7BB7A002B32
:105F5000F3D007F10A00FFF775FEEDE7386042461F
:105F60005146484624F0CCFF3B681E46EAE72060D5
:105F7000FFF768FE50B922683F49404624F0C0FF51
:105F800007F10A0100202FF0C3F976E7C36913B9BE
:105F9000036A002BF4D07B7A042B0AD80133DBB2DE
:105FA0007C227B72013B02FB03B334492268986771
:105FB000E3E75146404624F0A3FFE1E7D9F8780033
:105FC00080681AEA000008D02D4B184205D02D49F0
:105FD000104624F095FF1F4A0021D9F87800C068C8
:105FE0001BEA000F05D02849104624F089FF194A02
:105FF0000021D9F8783098684AEA000AD86808F190
:1060000001084BEA000B09F17C0945E7BDB9B36F04
:106010001B7C23B199F800205AB989F800301B4A3B
:10602000B36F11785B7C0B43137008F101087C3669
:1060300040E79342F3D05946504624F061FF0125D2
:10604000EDE700BF901C002000000010AE570308D1
:106050005C57030805C9010800000020FC5803082C
:10606000015903088C1C0020D8570308075803085F
:1060700037580308005B03082859030865590308CB
:10608000F3E3FFFFD15903084A5A0308921C00208A
:10609000B45803086A58030895590308911C002056
:1060A000C15A0308014B1878704700BF911C0020AB
:1060B000014B1878704700BF921C00204FF0A040A1
:1060C000704700004FF4883070470000014B18689B
:1060D000704700BFD82A002041F6FF7070474FF488
:1060E0008050704741F2F4007047032970B50446B0
:1060F000154603D8036903B15A5470BD0429FCD175
:10610000EA0702D5036A03B19847AB07F5D5636A7E
:10611000002BF2D0BDE87040184700002DE9F04791
:1061200004460F469046FFF7BFFDB4F1805F054679
:1061300020D2002619E0B4F5805F14D3A4F580596D
:10614000B5EB991F4FEA99100DDDFFF7B3FD836F93
:1061500018F8062019F0200F0CBF5869986909F04B
:106160001F01FFF7C2FF01360134BE42E3D3012015
:10617000BDE8F087230F013B4500B5EB530F4FEA15
:10618000530601DC0020F3E7304603F00105FFF77A
:1061900091FD826F536905B19369002BF2D0D3F85A
:1061A00000E0BEF1000FEDD0701C28444246394695
:1061B000A4EB0070F446BDE8F04760470346104684
:1061C000CA18B2F5005F03D20A4699B205F07AB94F
:1061D0000020704710B45418702C04D85DF8044B9C
:1061E00089B20CF00DB800205DF8044B7047000038
:1061F00018F0DABCB0F5805FF8B50D4611461BD239
:10620000B0F5806F35D255FA80F3342BC2B230D856
:10621000040A342318486343C61803F57173134402
:10622000002786F8F4732A461844FDF7C9FF204674
:1062300023F0F6FB0120F8BDA0F58050B0F5806F8B
:1062400017D255FA80F33D2BC2B212D8040A3D236F
:1062500009486343C61803F534731344002786F8CE
:106260000C732A461844FDF7ABFFE0B223F0A0FC04
:10627000E0E70020DFE700BFE04301202DE9F34124
:106280001E468368044690460F46984710F0010F5B
:106290000CBF01250325820748BF45F020054307B1
:1062A000636848BF45F040050BB145F0040523681D
:1062B0000BB145F00805237B0BB145F01005357097
:1062C000236A626A003B18BF01230AB143F002034C
:1062D00073706369C6F80230A369C6F80630C6F861
:1062E0000A801122394606F10E002EF0DDFFE36927
:1062F000A3B13846FEF784F933183A229A73E1695C
:10630000019105460846FEF77BF90F3501990246D3
:10631000701902B0BDE8F041FDF752BF02B0BDE810
:10632000F08100002DE9F04F2DED028B83B000AF1E
:1063300006460C469046FFF7B7FCB6F1805F7860E2
:106340005ED22246002140462EF01CFE002E54D183
:1063500034B901200C37BD46BDEC028BBDE8F08F8F
:106360000323013C88F80030E4B24FF00109002C0F
:10637000EFD06B4608EE103A7A6806EB09033B60F3
:10638000013BB2EB931F4FEA9315E2DD90B0284634
:10639000FFF790FC82460021402268462EF0F2FD75
:1063A000DAF878104869EB4628B16A1C49686B46F0
:1063B0001207FFF763FFDAF87810886930B1AA1C7A
:1063C00049680BF120031207FFF758FF3B68A9014A
:1063D0000131591AC1F1400AA245A8BFA24608EBF3
:1063E000090052465944FDF7EBFE18EE103AA4EBB3
:1063F0000A04E4B2D1449D46B9E74FF00009B6E77C
:106400007A68330F013B5000B0EB530F4FEA53094A
:1064100001DC00209EE7484603F00105FFF74AFC37
:10642000826F536905B19369002BF2D05B68002B32
:10643000EFD009F10100284442462146A6EB007046
:10644000984787E7F0B5B0F5805F85B004460E4603
:10645000154619D24FF480712A4802F07DFB294974
:10646000013C0023B34202DB012005B0F0BD671CF4
:1064700006D0A04206DD625CEA543C460133F1E7F7
:106480000246F9E70022F7E7A0F58053B3F5805FF5
:1064900018D24FF480711B4802F080FBA4F58054A1
:1064A0001849013C0023B342DEDA621C06D0A04248
:1064B00006DD625CEA5401340133F4E70246F9E791
:1064C0000022F7E710F0FF01A0F5005716D10D2EBE
:1064D00016D1102268462EF055FD6946C7F30720F5
:1064E00002F018FB019B2B60029B6B60039BAB606F
:1064F000009B003B18BF01232B73B5E70020B4E7D6
:106500000846B2E78821002010B4084C0B462468E6
:1065100011461A18A24204D85DF8044B1A4604F03A
:1065200087BC00205DF8044B704700BFD82A0020CC
:1065300003461046CA18B2F5005F03D20A4699B264
:1065400004F0A8BF0020704710B45418702C04D871
:106550005DF8044B89B20BF0EFBD00205DF8044BF1
:106560007047000018F032BB0346B3F5805F10B5EA
:10657000104612D2B3F5806F20D251FA83F4342C36
:10658000DAB21BD81B0A342404FB03230A460C4945
:106590001944FDF715FE012010BDA3F58053B3F596
:1065A000806F0BD251FA83F43D2CDAB206D81B0A65
:1065B0003D2404FB03230A460249E9E70020EBE7F8
:1065C000A4470120B046012001481BF0D5B800BF08
:1065D000245B03082DE9F843FFF710FBFFF7E4FB0A
:1065E000FFF7F2FFFFF760FB1449DFF85880144F04
:1065F000DFF8549002460646114824F081FC00243E
:10660000B44201DBBDE8F8832046FFF753FB836FFC
:10661000DA69054652B15A6852B1234649463846AE
:1066200024F06EFCAB6F2846DB6998470134E7E73E
:1066300022464146384624F063FCF3E75C5B0308DE
:1066400005C90108AB5B0308795B03082DE9F04736
:10665000FFF72AFBDFF84490DFF84480DFF844A01E
:10666000064600240127B44202DB3846BDE8F08725
:106670002046FFF71FFB836F1B6A3BB198472246FA
:10668000054628B15146404624F03AFC0134EAE779
:106690004946404624F034FC2F46F7E7EF5B0308F9
:1066A00005C90108D05B030870B5134D134E0346AE
:1066B00004462A4603CAB24220606160154604F1CE
:1066C0000804F6D10E4D0F4E03F128042A4603CAE2
:1066D000B24220606160154604F10804F6D10A4C0C
:1066E0000A4D5033224603CAAA4218605960144624
:1066F00003F10803F6D170BD0000024028000240FB
:106700000004024028040240000802402808024019
:1067100070B5114D0246034600F128061868596805
:106720002C4603C40833B3422546F7D10B4D02F182
:106730005006186859682C4603C40833B3422546EE
:10674000F7D1074D7832186859682C4603C40833CE
:1067500093422546F7D170BD00000240000402407C
:10676000000802402DE9F8430F4CDFF84080DFF8C5
:10677000409005460127002634F8021C54F8060C08
:1067800010F024FF854206D02B462246414648465B
:1067900024F0B6FB002701360B2E04F10C04EBD1DC
:1067A0003846BDE8F88300BF0A000020105C0308EB
:1067B00005C901082DE9F041A2B00DF079FF0121D2
:1067C0000446072011F0B8F804A8384DFFF76CFF15
:1067D00000262F46B046BB8857F80C0B02A901369D
:1067E000CDE9023810F0AAFE0B2EF4D100264FF0AE
:1067F000010837467CB3AB882868029302A9ADF83C
:106800000C808DF80E7010F099FEA988286810F0A1
:10681000E3FE0197019BB3F57A7F3EDB0120FFF792
:10682000A1FFA9880446286810F0D8FE0197019BB3
:10683000B3F57A7F35DB0020FFF794FF013600289F
:1068400002A955F80C0B8DF80C7008BF002410F04D
:1068500075FE0B2ECED104A8FFF75AFFCCB1012351
:106860001348ADF80C308026002302A98DF80E30B5
:106870004025029610F062FE0D48029502A910F024
:106880005DFE0B48314610F0A9FE0948294610F07C
:10689000A5FE204622B0BDE8F081019B01330193A3
:1068A000B8E7019B01330193C1E700BF040000205A
:1068B000000402402DE9F04FA5B00DF0F9FE0121D2
:1068C0000446072011F038F806A8DFF8C081FFF76A
:1068D000EBFE002546462F46B38856F80C0B04A95C
:1068E0000135CDE9043710F029FE0B2DF4D1002637
:1068F000664D4FF0010B3746002C51D0AB8828680D
:10690000049304A9ADF814B08DF8167010F016FEBB
:10691000A988286810F060FE0397039BB3F57A7F7F
:106920005CDB4346A1464FF0000A18460121019363
:1069300000F05AF90AF1010A0028019B08BF4FF044
:106940000009BAF10B0F03F10C03EED1A9882868F6
:1069500010F044FE0397039BB3F57A7F42DB434676
:106960004FF0000A18460021019300F03DF90AF1AA
:10697000010A0028019B08BF0024BAF10B0F03F1A4
:106980000C03EFD1002C55F80C0B8DF8147004A9F2
:1069900006F1010618BF4C4610F0D0FD0B2EABD10E
:1069A0003B4D00262F46B046BB8857F80C0B04A978
:1069B0000136CDE9043810F0C1FD082EF4D1CDF830
:1069C0000C8042F20F72039B93420FDD00260C27CE
:1069D00084B90024204625B0BDE8F08F039B013325
:1069E00003939AE7039B01330393B4E7039B0133BB
:1069F0000393E8E707FB0650012100F0F5F80136A4
:106A0000042E0446E4D101274FF0000842F20F792A
:106A1000002CDED0AB8E286B04A9CDE9043710F032
:106A20008DFDA98E286B10F0D7FDCDF80C80039B4F
:106A30004B4526DD2846002100F0D6F80136082E09
:106A4000044605F10C05E3D10028C2D001238026BD
:106A5000ADF8143004A900230E488DF816304025F7
:106A6000049610F06BFD04A90A48049510F066FD29
:106A70003146084810F0B2FD0648294610F0AEFD38
:106A8000A8E7039B01330393D1E700BF88000020F0
:106A900048010020000402402DE9F8430F4CDFF8C4
:106AA0004080DFF8409005460127002634F8021C9C
:106AB00054F8060C10F08AFD854206D02B4622467B
:106AC0004146484624F01CFA00270136052E04F101
:106AD0000C04EBD13846BDE8F88300BF120100205A
:106AE000105C030805C901082DE9F041A2B00DF0C2
:106AF000DFFD01210446072010F01EFF04A8384DD9
:106B0000FFF7D2FD00262F46B046BB8857F80C0B86
:106B100002A90136CDE9023810F010FD052EF4D19E
:106B200000264FF0010837467CB3AB8828680293F3
:106B300002A9ADF80C808DF80E7010F0FFFCA9884A
:106B4000286810F049FD0197019BB3F57A7F3EDB81
:106B50000120FFF7A1FFA9880446286810F03EFD38
:106B60000197019BB3F57A7F35DB0020FFF794FF97
:106B70000136002802A955F80C0B8DF80C7008BFDF
:106B8000002410F0DBFC052ECED104A8FFF7C0FDD9
:106B9000CCB101231348ADF80C308026002302A9A4
:106BA0008DF80E304025029610F0C8FC0D48029575
:106BB00002A910F0C3FC0B48314610F00FFD094844
:106BC000294610F00BFD204622B0BDE8F081019B64
:106BD00001330193B8E7019B01330193C1E700BF83
:106BE0000C0100200004024038B50D46044681889F
:106BF000006810F0EBFC854207D0054905482B469C
:106C0000A21D24F07DF9002038BD0120FCE700BF63
:106C1000B473030805C901082DE9F3411FF032F9E7
:106C20002A4E2B4D2B4F3078002849D02A4B2B4C25
:106C3000042200219E4613F8018B14F801CBE04595
:106C40001CBF03F801CC0146013AF4D131B124480C
:106C5000CDF800E004232E2105F09EF93B78012BAE
:106C60002ED9204B204C1B7822789A420DD02370CD
:106C700001231A461A4800942E2105F08DF91B4B6A
:106C800022781B481A7019F0A7FA2B7823B94FF411
:106C90007A7028F0F3FCC6E7DFF85C8028F088FB08
:106CA000D8F80030984204460AD9124B00930C4899
:106CB000012302222E21643405F008F9C8F80040AF
:106CC0002B78002BE3D00A20E3E700BF981C0020BC
:106CD000951C0020941C0020A9010020AE0100207A
:106CE00058050020AD010020A8010020961C0020BE
:106CF0006C160408931C00209C1C002010B5104B3F
:106D00001878A0B10F491048104CFDF7FDFA78B97A
:106D10000123237022780E4C002A14BF0122002286
:106D2000227003D10B490C4824F0EAF8207810BDFA
:106D300004490A48FDF7E8FA0028EBD10223E8E706
:106D40002A1C0020A01C0020F8730308941C0020BB
:106D5000981C00201074030805C901080474030876
:106D600073B5124E3478F4B9114D1249124801949A
:106D7000032300939622234628F09CF90D222146F6
:106D800028462EF0FFF80C2310222E210B480095E8
:106D900005F09CF80A4B0B4918702A460A4824F063
:106DA000AFF80123337002B070BD00BF2A1C002071
:106DB000A01C002035740308196C00085805002039
:106DC000971C00204774030805C90108034B187875
:106DD000034B1B780BB140F0040070472B1C0020C4
:106DE000681D0020044B1878044B1B78022B08BF49
:106DF00040F00400704700BF2B1C00201C1D002029
:106E00000120704738B50A4C012210460221234662
:106E10001FF0D6FE012510232046A371A5801FF088
:106E200097FB642028F02AFC024B1D7038BD00BF80
:106E3000AE1C0020681D00202DE9F04F3B4C06469B
:106E400085B00F46924699460F2223460421012021
:106E50001FF0B6FE86B90223A37104236372D9F82A
:106E60001030E6712672A6721B68C4F80B302046FB
:106E70000923A3801FF06CFBDFF8C0802C48D8F8F2
:106E80000050C5F1400B5F453A4628BF5A46B3183B
:106E900051462844CDE90223FDF792F9029A2A448B
:106EA000402AC8F8002005D0D9F81010039B0968C3
:106EB000994218D11E491F480292403DFDF780F9C2
:106EC000029A1A48A2803D441FF042FB00239D42D3
:106ED000C8F8003007DD16482A460AEB0B01FDF71B
:106EE0006FF9C8F80050D9F810301A683E4496423D
:106EF00018D104220025A2716272E5712572A57273
:106F00001B680A48C4F80B300923A3801FF020FB3C
:106F10004FF0FF3308480093012200682B461146CA
:106F200026F010FD012005B0BDE8F08FAE1C00205A
:106F30001D1D0020B41C0020181D0020601D002015
:106F4000F8B5194F01253D701FF048FD4FF4E130B1
:106F500007F006FC154B1C7829462046FEF730FC4E
:106F600000212046FEF75EFC114B1E782946304674
:106F7000FEF726FC00213046FEF754FC0A2028F0DC
:106F80007DFB29462046FEF74DFC02212046FEF7F8
:106F900017FC642028F072FB00213046FEF710FC3D
:106FA00002233B70F8BD00BF1C1D002030560308B3
:106FB0002D56030870B5194D2E786EBB184B012164
:106FC0001878FEF7FDFB174B01211878FEF7F8FB48
:106FD00026F0AAFC144B1860144B1C7801212046A3
:106FE000FEF7EEFB31462046FEF71CFC1FF0A8FC26
:106FF0001FF0EAFA1FF05AFA1FF0E6FD01212046C1
:10700000FEF710FC02212046FEF7DAFB084909488A
:1070100023F076FF01232B7070BD00BF2B1C0020D6
:107020002E5603082F560308181D0020305603085B
:107030009074030805C90108024B0121186826F065
:107040002FBD00BF181D0020002006F0EFBF10B5B7
:107050000446802006F0EAFFA0B2BDE8104006F02A
:10706000F5BF000010B5054C237833B906F072FF68
:1070700003480AF083FD0123237010BD2C1C00205F
:10708000B40100202DE9F04F2DED028B8DB01EF0E4
:10709000F9FE0EF087F9DFF804A1DFF82491DFF89C
:1070A000248106460F460A2028F0E8FA3B4999F861
:1070B000000007F027FABAF904506D422DB285EAB4
:1070C000E573A3EBE5739BB2632B60D8BAF902407A
:1070D000644224B284EAE473A3EBE4739BB2632BAF
:1070E00055D82F4B1A782F4B002A4CD0BAF80A20CB
:1070F000DFED2D6ADFED2D7A07EE102AB8EE477A24
:10710000E7EE267AB0EE677ADFED297AB4EEE77A19
:10711000F1EE10FA58BFF0EE477AC3ED007A254A37
:107120001278002ABFD19AF80020B02ABBD1D3F838
:1071300000B00EF037F9801B61EB0701FEF75CF839
:10714000DFED1D7A07EE100A87EE278A0EF02AF986
:107150000623064668460F468DF80030CDF810B07D
:10716000CDF814B007EE905AF8EEE77A8DED068A66
:10717000CDED027A07EE904AF8EEE77ACDED037A8C
:1071800018F03CFF8FE70D4A12681A60C7E798F8BD
:107190000030013388F8003085E700BF384A01200D
:1071A0006C1D0020C0010020B84B513AB6F3DD3E03
:1071B000CDCCCC3D6D1D002000247449BC010020C5
:1071C0002F5603086B1D002010B5084B1C7834B1F6
:1071D0000748FEF737FDBDE81040036A1847054928
:1071E000054823F08DFE204610BD00BF6A1D00201B
:1071F000BF6003084875030805C9010837B50F4D7E
:107200002B78CBB90E4B1C78B4B90E48FEF71AFD9B
:10721000C369204698470C4B187806F089FF58B18F
:107220000323009309490A48019423464FF49672B8
:1072300027F040FF01232B7003B030BD691D0020F3
:107240006A1D0020B56003082F56030875750308F2
:107250008570000837B50F4B1B78CBB90E4D2C78D5
:10726000B4B90E48FEF7EEFCC369204698470C4BB4
:10727000187806F05DFF58B10323009309490A48C6
:10728000019423464FF4967227F014FF01232B70CC
:1072900003B030BD691D00206A1D0020BF600308D7
:1072A0002F560308757503088570000810B5084B44
:1072B0001C7834B10748FEF7C5FCBDE81040036AEE
:1072C00018470549054823F01BFE204610BD00BFA6
:1072D000691D0020B56003084875030805C9010849
:1072E000182070472C20704770B571B1124A0346C0
:1072F00000F1240114781C7054785C7094789C70B0
:1073000003338B4202F10302F4D10478417882788E
:10731000034600F12105DE781E701E795E705E79ED
:107320009E700333AB42F6D180F8214080F82210E2
:1073300080F8232070BD00BF7476030830B5214B60
:1073400009B100221A6093ED007A1F4D1F4C2049AD
:10735000F7EE007AB4EEE77AF1EE10FA44BFDFED13
:107360001D7A77EE277A00F12402C3ED007A2B789C
:1073700007EE103AB8EEC77A033027EE277ABCEE54
:10738000C77A17EE103A00F8033C237807EE103A5C
:10739000B8EEC77A27EE277ABCEEC77A17EE103A16
:1073A00000F8023C0B7807EE103AB8EEC77A27EEE9
:1073B000277ABCEEC77A17EE103A00F8013C8242F9
:1073C000D5D130BD941D002046020020450200208A
:1073D00044020020CDCC4C3DF0B500F1240439B17D
:1073E000034600221A705A709A7003339C42F9D1F6
:1073F000104940F20F2540F203160B784A78DF0857
:10740000DB0003F0380343EA521302F01F026F431C
:1074100073436A43173721331732BF119B119211FF
:107420000770437082700330844201F10201E4D19D
:10743000F0BD00BFD71D00207FB51B4B1A681B791C
:107440008DF80A30194BCDF8062000211A681B79F7
:10745000CDF80B208DF80F300DF10602FF260D46FA
:1074600012F8013B03EB4303C41801310529C6544C
:107470006570A570F4D100250DF10B012B46FF249A
:1074800011F8012B02EB420286180135052D8354B9
:107490007470B370F4D10470447084708374C374D6
:1074A000037504B070BD00BFC4750308CA75030836
:1074B00070B571B1124A034600F1240114781C70B2
:1074C00054785C7094789C7003338B4202F1030211
:1074D000F4D1047841788278034600F12105DE7802
:1074E0001E701E795E705E799E700333AB42F6D1DA
:1074F00080F8214080F8221080F8232070BD00BF62
:10750000FE75030870B599B10C2216491546B2FBF9
:10751000F5F305FB132303EB43030E78C654C4189D
:107520004B7863708B78A370013A01F10301EED1BF
:1075300090F8214090F8221090F823200346A0F103
:1075400021059E7F83F82160DE7F83F8226093F817
:10755000206083F82360033BAB42F2D1047041709A
:10756000827070BDDA75030837B5044611B1174B48
:1075700000221A6016480191FFF7B6FE01991548DE
:10758000FFF7C0FF1249134A2046243413780D78C0
:107590005B0803EB5503037053784D785B0803EBEE
:1075A0005503437093788D785B0803EB5503837024
:1075B0000330A04201F1030102F10302E6D1034AC4
:1075C00013680133136003B030BD00BF401E0020BC
:1075D000441E0020681E002030B500F1240439B19B
:1075E000034600221A705A709A700333A342F9D1ED
:1075F0000D4A1368092B4FF000010EDCDD070CD596
:10760000FF250170417085700330A042F9D101332C
:10761000132BC8BF0023136030BD0170417081700F
:1076200003308442F9D1F2E79C1E00200D4B0E4836
:107630001988B0F90020114489B2B1F57A6F198028
:1076400007D9524202804FF47A621A8018880AF0F1
:107650008DBAB1F5FA6FF9D2524202804FF4FA6254
:10766000F3E700BFE8140020EA1400202DE9F043FE
:10767000674B684D1B682A68674C6849684E93429F
:10768000684A4FD0DFF8A48194ED007AD8ED007AF3
:10769000DFF89CE191ED006ADFF898C1624FDFF8F6
:1076A0009C912B60C7EE276AD9F80090C8F800902B
:1076B000C3F30748C4F80090F7EE007A77EEE67A55
:1076C0009EED007A27EE877AA6EE267A92ED006A82
:1076D00081ED007A9CED007A27EE877AA6EE267A75
:1076E00082ED007A97ED007A67EE877A96ED007A60
:1076F000E7EE267AC6ED007A07EE908AF8EEE77A92
:10770000CEED007AC3F3072E07EE90EAF8EEE77AA3
:10771000CCED007A5FFA83FC07EE90CAF8EEE77AC8
:10772000C7ED007AD4ED007AF5EEC07AF1EE10FAEA
:1077300000F124053FDD3D4B91ED006A93ED007AA9
:107740003B4BC7EE876AF7EE007A77EEE67A93ED69
:10775000007A384B27EE877AA6EE267A92ED006AF9
:10776000BDEEC77A17EE101A93ED007A2E4B27EE76
:10777000877AA6EE267ABDEEC77A17EE102A93ED29
:10778000007A67EE877A96ED007AE7EE267AFDEECC
:10779000E77A17EE903A01704270837003308542A9
:1077A000F9D1D4ED007A9FED247A77EEC77AC4ED53
:1077B000007ABDE8F08300272760C3F3074406EE94
:1077C000904AF8EEE66AC1ED006AC3F30721DBB226
:1077D00007EE101A07EE903AB8EEC77AF8EEE77A9D
:1077E00082ED007AFCEEE66ABCEEC77AC6ED007A5E
:1077F000FCEEE77A16EE901A17EE102A17EE903A82
:107800000170427083700330A842F9D1D1E700BF04
:10781000C81D002040020020CC010020D40100201F
:10782000C8010020D00100208C1E0020C4010020CF
:10783000941E0020901E0020CDCC4C3D2C02002038
:1078400037B5044624F09CFC07EE900ADFED1D6A74
:107850009FED1D6AB8EEE77ADFED1C7AE7EE267A37
:10786000204600252434FCEEE76ACDED016ADFED09
:10787000186A9DF80420E7EE066ABCEEE67A17EE79
:10788000103A9FED147AF4EEC76AF1EE10FAC8BF11
:107890004FF0FF33DBB2F4EEC77AF1EE10FA0EDCF4
:1078A000F5EEC07AF1EE10FA4CBF002111460170DE
:1078B000437085700330A042EDD103B030BDFF218D
:1078C000F5E700BFC9C8C8BEC9C8C83E0000C84265
:1078D0000000000000007F43F8B5224E224F3368BD
:1078E0000133054609D12149214819F0F3F921490D
:1078F0003060214819F0EEF9386027F059FD044650
:10790000308819F02FFE241AA4B21E2C388828BF04
:107910001E2419F0A7FD40B2184B1949032808BFCF
:10792000012204EB4406A4EB840408BF1A706434FB
:107930000A681F782846F6B2E4B2243500236FB1F6
:10794000092A0BDC03704370837003308542F6D143
:107950000132132AD8BF13460B60F8BD067044707D
:10796000F2E700BF380200203C0200205D670308F8
:1079700067670308AF7003085E6103086E1D00208F
:10798000A01E002073B520490446204819F0A2F932
:1079900019F0E8FD1E4905461C4819F09BF919F03D
:1079A000B9FDDFED1C7A9FED1C7A30EE670ADFED42
:1079B0001B7AE0EE077A9FED1A7AF4EEC77AF1EEC1
:1079C00010FA19DCF5EEC07AF1EE10FA16D4FCEEDE
:1079D000E77ACDED017A9DF80420234604F12400D6
:1079E0006421D44300265DB11C705A709E7003332D
:1079F0009842F8D102B070BDFF22EEE70022ECE71A
:107A0000197059709970F2E7A7610308B86103080B
:107A1000A26103080000AA423333A3C000000000A3
:107A200000007F43F7B531490446314819F052F957
:107A300019F070FD2F4A30499FED307ADFED305A52
:107A40009FED305A2046154624340E46B0EE476A64
:107A50000027D2ED007AD1ED006A76EEE76A70EE8B
:107A6000677AC5EEA64AF0EE476AE4EEA76AF4EE3E
:107A7000C76AF1EE10FA30DCF5EEC06AF1EE10FAEA
:107A80002DD4FCEEE67ACDED017A9DF8043003703A
:107A90004770D5ED007AD6ED006A76EEE76A70EEB3
:107AA000677AC6EE264AF0EE456AE4EEA76AF4EE7F
:107AB000C66AF1EE10FA14DCF5EEC06AF1EE10FAC7
:107AC00011D4FCEEE67ACDED017A9DF80430837096
:107AD00003308442BDD103B0F0BDFF23D7E70023BC
:107AE000D5E7FF23F3E70023F1E700BF6161030857
:107AF0005E610308280200203002002000007F435E
:107B000000007FC300000000F8B5424E424D434FD5
:107B10000446306800280FDA4149424819F0DAF883
:107B2000414930603F4819F0D5F8404928603D4848
:107B300019F0D0F83860F8BD80B219F0EBFCFDEE1A
:107B4000C07A288817EE906A19F0E4FCFDEEC07A3E
:107B5000388817EE905A19F0DDFC354B9E423246BC
:107B6000B8BF1A46B2F5007FFDEEC07AA8BF4FF449
:107B700000729D4217EE900A2946B8BF1946B1F52A
:107B8000007FA8BF4FF400718342B8BF0346B3F52E
:107B9000007FA8BF4FF40073002EACBF01264FF04A
:107BA000FF36002D02FB06F2ACBF01254FF0FF357A
:107BB000002801FB05F1ACBF01204FF0FF30092A7E
:107BC00003FB00F3CCBF521000220929CCBF49109F
:107BD0000021092B2046CCBF5B1000232434B3F5D1
:107BE000807F14BF1D46FF25B1F5807F057014BF4F
:107BF0000D46FF25B2F5807F457014BF1546FF2561
:107C000085700330A042EAD10A4A13780133137019
:107C100091E700BF34020020CC1D0020D01D0020C1
:107C2000487103080362030853710308666C030874
:107C300000FEFFFF981D0020F8B5434F434E3B78F0
:107C4000434D2DED028B04465BB94249424819F081
:107C500041F842493060404819F03CF8012328605F
:107C60003B70308819F056FC2888F0EE408A19F0F5
:107C700051FCB5EE400AF1EE10FAB0EE408A5FD04A
:107C800088EE880A2AF098FDDFED357AB5EEC08AD5
:107C9000F1EE10FA70EE277A03D59FED327A77EE87
:107CA000877A28EE088AF2EE086AA8EEA88A2046AB
:107CB000002267EEA67A9FED2C7AC7EE875AB1EEC6
:107CC000C87ADFED2A7AB4EEE77AF1EE10FAD4BF83
:107CD000BDEEC77A9FED267AB8EEC77AF0EE047A49
:107CE00087EE276AB1EE085AB1EE466A07EE902A8F
:107CF000F8EEE77AF0EE474A75EEE77A0132F0EEF9
:107D0000E77AF4EEC57AF1EE10FAC8BF76EEE77ABC
:107D10000330E6EE274AFDEEE47A17EE903AFF2BA9
:107D2000DABF23EAE373DBB2FF230C2A00F8033C3B
:107D300000F8023C00F8013CD8D1BDEC028BF8BD44
:107D4000DFED0C7AADE700BFD61D0020341E002009
:107D50003C1E0020146C0308AC6F03080A6C030877
:107D6000DB0FC93FDB0F4940DB0FC94000007F43F9
:107D7000FF00000000000000002110B50B481EF0BD
:107D8000EFFA0B4B0B481B78102163B10FF024FC6A
:107D9000094C237833B10123237227F009FB002318
:107DA0006060237010BD0FF019FCF1E77D810008C1
:107DB000D41D0020000402401C1E002008B50B4604
:107DC00011461A18282A06D81A46044B1844FCF7FC
:107DD000F7F9012008BD0020FCE700BFF41D0020DA
:107DE00008B503461046CA18282A06D80A46044988
:107DF0001944FCF7E5F9012008BD0020FCE700BFAD
:107E0000F41D002008B50B4611461A18182A06D88A
:107E10001A46044B1844FCF7D3F9012008BD002092
:107E2000FCE700BFD71D002008B503461046CA185E
:107E3000182A08D80A4605491944FCF7C1F9003840
:107E400018BF012008BD0020FCE700BFD71D00209F
:107E500041B100F1240200230370437083700330AA
:107E60009042F9D17047000070B5234B09B1002250
:107E70001A6093ED007A214C214DF7EE007AB4EEB2
:107E8000E77AF1EE10FA44BFDFED1E7A77EE277A3B
:107E9000C3ED007A237803EB43016A186E5C5578D2
:107EA000917800F124020670457081700330904291
:107EB000F9D1154D1548297802780131C9B201323E
:107EC000D2B204292970027009D900210133297026
:107ED0000321B3FBF1F101EB41015B1A23700C2A82
:107EE00009D90B4A002303701378B3FA83F35B09B3
:107EF0001370084A137070BD9C1D0020991E00204D
:107F000058760308CDCC4C3D981E0020D51D00208E
:107F10009A1E0020D41D0020F0B52DED028B0446E2
:107F200083B049B1034600F1240100221A705A704F
:107F30009A7003338B42F9D1694F6A4E3B686A4DA0
:107F4000002B12DA69496A4818F0C4FE69493060AA
:107F5000674818F0BFFE68492860654818F0BAFE07
:107F6000386003B0BDEC028BF0BD308819F0D2FA56
:107F70002888B0EE408A19F0CDFAFBEE047AB4EE10
:107F8000E78AF1EE10FAB3EE047A00F18D80B4EED8
:107F9000C78AF1EE10FA00F38A80F1EE486AB4EE77
:107FA000E70AF1EE10FA00F18580B4EEC70AF1EEAF
:107FB00010FA00F38280B1EE400AF5EEC06AFFEEDF
:107FC000007AF1EE10FAB7EE007AB5EEC00AB4BF4F
:107FD000B0EE676AB0EE476AF1EE10FAB8BFB0EEE5
:107FE000677A26EE866A60EE077A66EE266A27EEE4
:107FF000800AF2EE047A36EEA76A9FED407AB4EE7C
:10800000C76AF1EE10FA5BDCB5EEC06AF1EE10FA69
:1080100058D4BCEEC66A8DED016A9DF8043084F830
:10802000213037EEC06A2370B4EEC76AF1EE10FA61
:10803000E37049DCB5EEC06AF1EE10FA46D4BCEE4E
:10804000C66A8DED016A9DF80430237277EEE66A08
:10805000E372F4EEC76AF1EE10FAA37338DCF5EEC2
:10806000C06AF1EE10FA35D4FCEEE66ACDED016A95
:108070009DF80430E37370EE277AA374F4EEC77AA8
:10808000F1EE10FA637527DCF5EEC07AF1EE10FA26
:1080900024D4FCEEE77ACDED017A9DF80430A37686
:1080A000637784F820305CE7F0EE476A77E7F0EE1C
:1080B000676A74E7B3EE040A7FE7BBEE040A7CE765
:1080C000FF23ACE70023AAE7FF23BEE70023BCE7BA
:1080D000FF23CFE70023CDE7FF23E0E70023DEE720
:1080E00048020020301E0020381E0020146C0308B7
:1080F000AC6F03080A6C0308C863030800007F43E1
:108100007FB5174E35784DBB08F0E8F8154B16488B
:10811000ADF80E5012221A600124102302A9029316
:108120008DF80C400FF00AFA104819F025FB1048A2
:1081300019F022FB0F4B34702246322100930E4877
:108140002B4628F0E7F9064627F032F96423024669
:10815000009321462B46304628F04EFA04B070BDFD
:108160002D1C0020281E0020000402404876030831
:1081700064760308797D0008D075030810B51B4BA1
:108180001B4A1B681268934205D91A480C21BDE8A6
:10819000104008F059B9184A184C11681360184A71
:1081A000184852F82320C91A18BF01219047237A92
:1081B00073B127F0FDF8616840F2DB53401A984232
:1081C00009D90021217261600E4824222CF0DAFEC8
:1081D0000C480C21DBE74FF49673B0FBF3F103FB83
:1081E0001101642994BFFF210021EDE7D80100208F
:1081F000281E00206F1D0020C41D00201C1E002012
:10820000DC010020A01D00202DE9F04F2DED028B98
:10821000814695B009B3A44A034600F12401002425
:10822000147054709470033303F8034C03F8024C39
:1082300003F8014C994202F10302F1D19B4B002259
:108240001A600DF0AFF800234FF47A72FDF71AF8B8
:10825000974BC3E90001974B1C60DFF858B2DFF879
:108260005CA2DBF800300AEB8302013351680A910B
:108270000AEB83011AF823804D788E7845EA0803CB
:10828000334300F0A881D7790DF08CF84FF47A725F
:108290000023FCF7F7FFCDE90001DFED876ACDF899
:1082A0001CB007F00F0440F20F2E7F09804BD3E97A
:1082B00000232821CDE90223C1FB8823CDE9042333
:1082C000EB0003F03803E90843EA561340F20315C4
:1082D000DDE900BC6B4306F01F02DDE904560EFB2E
:1082E00001F10EFB02F2664501F1170103F12103D2
:1082F00002F1170208BF5D45C1F38711C3F387136D
:10830000C2F3871272D30BAD674E8DF825108DF82E
:1083100026308DF8272028464FF0000C96F800E014
:1083200080F800E00CF1010C96F801E080F801E023
:10833000BCF10C0F96F802E080F802E006F10306AB
:1083400000F10300EAD19DF82B0064F3030067F30A
:1083500047108DF82B00C6B2C00640F14181009B4A
:10836000029A981A019B039A63EB0201FCF73CFB0B
:1083700082464FF47A7000FB08F81920B8FBF0F041
:108380008B46FCF7FDFA02460B4650465946FCF771
:108390008BFCFCF719FE16F00F0206EE900AF7EEC2
:1083A000007A00F08D8037EEE67A3F4D0DF1250121
:1083B00004EB440400220BA811F8013B07EE903AAD
:1083C000635DF8EEE77A06EE103A67EEA67AB8EE4D
:1083D000C66A0132E7EE067A032AFCEEE77A17EE68
:1083E000903A235404F10104E6D18EE09DF82B501D
:1083F00064F3030567F34715EEB215F00F054AD194
:10840000294C217001350C2D6370A27004F1030416
:10841000F7D116F0E00F19D007EE908AF8EEE77A60
:10842000B3EE097A67EEA67A4FF47A7387EE876A1D
:108430005F431E4B07EE907AF8EEE77A86EE277AD6
:10844000D3ED007A77EE277AC3ED007ADDE90412E6
:10845000174BC3E90012079B079A19684B1C13605E
:108460000AEB830302315A680A92DF791AF82180F5
:108470000AEB810207F00F04557896787F09B8F16E
:10848000000F7FF413AF002D7FF410AF002E00F02B
:10849000A280A8460AE7044D04EB4404284625447C
:1084A00001556B70AA70B4E7A81E0020CC1E0020F6
:1084B000D01E0020A41E002000007A44F01D0020E1
:1084C00037EEE67A524B0DF1250403EB020CA818A7
:1084D00000211CF8013B06EE103A14F8013B07EEB0
:1084E000903AF8EEE77AB8EEC66A67EEA67A0131FE
:1084F000E7EE067A0329FCEEE77A17EE903A00F8E9
:10850000013BE6D10332242ADCD1424B16F0E00FC6
:1085100093ED008A15D0009B029A981A019B039A4A
:1085200063EB0201FCF768FE4FF47A735F4307EEDA
:10853000907A07EE100AF8EEE77A87EE277A38EE9F
:10854000078AF2EE087A28EE278A0C20FDEEC87A18
:10855000B7EE007A17EE905AF8EEE77A002638EE7A
:10856000678A95FBF0F337EE487A00FB13553446E3
:10857000013D01342A1992FBF0F300FB132303EBB6
:108580004303B4FBF0F200FB12424B440BA902EB95
:1085900042070F4403F1FF3CA2EB82010233CA19E8
:1085A000925D06EE902A17F8012B07EE902AF8EE5E
:1085B000E77AF8EEE66A67EE277AE6EE887AFCEE6E
:1085C000E77A17EE902A0CF8012F6345E7D10C2CBF
:1085D00006F10306CDD115B0BDEC028BBDE8F08FDE
:1085E00016F00F0008D101300C2829706B70AA70AA
:1085F00005F10305F7D188E704EB440414A804440B
:1086000004F8241C04F8233C04F8222C7DE700BF66
:10861000A81E0020CC1E002020F05EBD73B5134EB6
:1086200034780CBB20F02EFD0323114900934FF446
:10863000967223460F48019426F03CFD0E4B0193A1
:108640000E4B009301222346C8210D4827F090FFCE
:10865000054626F0ADFE2346024600940121284639
:1086600027F0CAFF0123337002B070BD2E1C00201A
:1086700098760308A5910208D81E002019860008E4
:108680009B76030808B5044B1B6802215B6898477A
:10869000024B186008BD00BF580200208421002052
:1086A00008B5044B1B6801215B689847024B1860B2
:1086B00008BD00BF580200208421002008B5044BEB
:1086C0001B6803215B689847024B186008BD00BF18
:1086D000580200208421002019B9044B28221A8056
:1086E00070470129FCD1014B0822F8E7AC020020B9
:1086F00010B5044C22781AB90349044822F000FC52
:10870000207810BD2F1C0020C876030805C9010879
:10871000084626F0B3BF000070B586B0FDF7C6F876
:108720000B2102200FF002FA01244FF4006304A889
:108730000493ADF814308DF816400EF0A7FE3D4BB3
:108740003D4E18782146FDF73BF83C4B1D782146FD
:108750002846FDF735F83A4B00211878FDF730F838
:1087600000212846FDF75EF80A2026F087FF214603
:108770002846FDF757F80A2026F080FF3149324895
:1087800028F048FB304828F0A5FD054638B1002305
:108790002E492F48337022F0B3FB06B070BD2A4833
:1087A00028F0A2FB00220023CDE902232648DDE9C0
:1087B000022329F0EDFC2749234829F0E3FC264950
:1087C000214829F0E1FC25491F4829F0DFFC1E481B
:1087D00028F021FE1C4829F08FF821491A4829F079
:1087E0006FF81948022128F0D9FE1748092128F00E
:1087F000DDFE1548214628F02BFE42F2107112488A
:1088000028F098FC104829F03FFC164818F0B4FFF7
:10881000204625F0CAFE144B14491860144B0193EE
:108820000323009313482B464FF4E17226F042FCD9
:108830003470B2E72D5603082F1C0020325603086F
:10884000315603087C020020601F0020EF760308E9
:1088500005C9010885860008A1860008BD860008B4
:108860008AD90308787703085C1F00201277030871
:1088700088220020A98900082DE9F8431E46164BDE
:10888000DDF820901888154D14460F46FDF71CF9A9
:10889000134B93F8008000214046FCF7C3FF2246AB
:1088A00039462846FBF78CFC4A4631462819FBF727
:1088B00087FC0C4A294604EB0900FDF793F80121D7
:1088C0004046FCF7AFFFFDF70FF9074A9368013305
:1088D0009360BDE8F88300BFAC020020C0200020F8
:1088E0002D560308FC1F0020B00200202DE9F8439C
:1088F0001D46194B089E1888184F14468846FDF7E8
:10890000E3F8174B93F8009000214846FCF78AFFE4
:1089100041462246DFF850803846FBF751FC32468C
:10892000002138192CF02EFB42463946A019FDF7DC
:1089300059F8324608EB04012846FBF741FC0121B7
:108940004846FCF76FFFFDF7CFF8064A93680133FE
:108950009360BDE8F88300BFAC020020C020002077
:108960002D56030890020020FC1F002010B5094B73
:10897000094CD870094B53F83030236008481B6805
:108980009847236806485B6800219847054B1860A4
:10899000012010BD4C020020580200205C02002083
:1089A000601F00208421002080B5002220210A20A1
:1089B00025F0E8FC4C4B4D4C186000234C4EE37006
:1089C0001DF060FA4B4F354630684FF0FF3125F00F
:1089D00073FF94F80290B9F1000F5CD126F0E8FC27
:1089E0006379804663B194F804A0BAF1000F31D0E6
:1089F00000F57A70A0600220FFF7B8FF84F80490B9
:108A00000023DFF8089128681A46194625F0F2FC81
:108A1000D9F800200121002027F066FA80460028BE
:108A20004ED0DFF8E490DFF8E88028684FF0FF319F
:108A300025F042FF484629F04FFB002328681A46DC
:108A4000194625F0D7FC98F80000FCF7F9FE00283D
:108A5000EBD1B9E7A3689842D2D9274B1B689B6832
:108A60009847E37848B107EBC30324495A6884F870
:108A700005A0234822F044FAC2E70133D8B2042803
:108A800028BF012008F57A73A360431E022BB7D8D4
:108A9000FFF76CFFB4E740F20113A380E3784B4586
:108AA000AED009F1FF33022BAAD84846FFF75EFF8C
:108AB0000028A5D0E378134907EBC3035A68D8E729
:108AC00028684FF0FF3125F0F7FE0B4B0E481B686E
:108AD00041465B6898474346C9F80000424628680B
:108AE000414625F087FC6FE7F81F00204C0200206C
:108AF0005C1F00205C02002058020020167703084B
:108B000005C9010838770308601F00208421002070
:108B100031560308F8B50D4B1C7805460E4694B146
:108B20000B4F4FF0FF31386825F0C6FE094B1B682C
:108B30003146DB6828469847002304461A463868C1
:108B4000194625F057FC2046F8BD00BF2F1C002019
:108B50005C1F002058020020F8B50D4B1C7805461C
:108B60000E4694B10B4F4FF0FF31386825F0A4FE4C
:108B7000094B1B6831461B69284698470023044669
:108B80001A463868194625F035FC2046F8BD00BF66
:108B90002F1C00205C1F002058020020F8B50D4B50
:108BA0001C7805460E4694B10B4F4FF0FF313868E4
:108BB00025F082FE094B1B6831465B6928469847C1
:108BC000002304461A463868194625F013FC20464F
:108BD000F8BD00BF2F1C00205C1F002058020020A1
:108BE00038B505460948007878B1094CA01C627078
:108BF0002570FBF7E5FA074800231A46006821466E
:108C000025F0F8FB431E5842584138BD2F1C002068
:108C1000B81F0020F81F002008B5054B01460022B0
:108C2000186825F0A1FD431E5842584108BD00BFF9
:108C3000F81F002007B50A4B00211868019101AA0E
:108C400027F034FB019B3BB1064B4FF080521A607A
:108C5000BFF34F8FBFF36F8F03B05DF804FB00BF0E
:108C60008822002004ED00E070470000014B1888C6
:108C700080B270474C020020014B1880704700BF43
:108C80004C020020014B1878704700BF22230020BF
:108C9000014B1878704700BF23230020014B187840
:108CA000704700BF2423002013B50446019126F02D
:108CB0007FFB019A03460348214602B0BDE81040FD
:108CC00024F0B7BA909D001013B50446019126F028
:108CD0006FFB019A03460348214602B0BDE81040ED
:108CE00024F0A7BA909D001070B50A4B0A4C1D687D
:108CF000002201461046AB6854F8046B9E42BCBF8C
:108D00000A54431C02F10102B8BFD8B2082AF2D1BA
:108D100070BD00BF7C040020F42400200A460146F8
:108D2000014824F071BA00BF909D00100A46014628
:108D3000014824F069BA00BF909D0010034600204E
:108D4000185401300828FBD17047000037B504469D
:108D50000D4626F02DFB214602466B46054824F0C1
:108D600040FA044618B12946684624F08AFA20469B
:108D700003B030BD909D001037B504460D4626F077
:108D800017FB214602466B46054824F02AFA0446A2
:108D900018B12946684624F074FA204603B030BD65
:108DA000909D001010B507289FBF064B1B6803EB72
:108DB000001058300C4697BF0FC8002084E80F0001
:108DC000012010BD7C04002010B5044628F09CFC56
:108DD000204628F091FD2046BDE8104028F0D4BA86
:108DE00038B5054626F0E4FA9FED0D0B0E4A014614
:108DF00002230E4823F074FF0D4B00241C700D4B12
:108E000020461C70FFF738FF42F21071284628F008
:108E100091F9284629F038F9074B1C7038BD00BF7E
:108E20000000000030C12D42858E0008909D00108A
:108E30002123002020230020222300200000000006
:108E400010B5044626F0B4FA0B4A01239FED080B37
:108E500001460A4823F044FF42F21071204628F0F0
:108E600069F9204629F010F9054B00221A7010BD4F
:108E70000000000030C12D42D98E0008909D0010E6
:108E80002323002070B5124B8CB01B68836205460B
:108E9000002306468DF800300FCD01AC0FC40FCD76
:108EA0000FC495E8070084E80700684617F0A6F8A5
:108EB00096F8203096F82120013303F007039342FF
:108EC00001BF044A02EB8303726A1A600CB070BDE2
:108ED00080040020BC22002030B50B4B8DB01B68F5
:108EE0008362044600238DF800300FCC01AD0FC51E
:108EF0000FCC0FC594E8070085E80700684617F017
:108F00007DF80DB030BD00BF8404002000000000DB
:108F10002DE9F04F984943F28842B3B08B580133A2
:108F20008B50074628F073FB0DF1330102460646CD
:108F3000384628F08AFB9DF84830222B40F0058106
:108F40008E4B109C93F80090E4B2B9F1000F53D00F
:108F5000DFF8448298F80030A34240F0F380884D57
:108F6000384628F072F92B7898F8012023F07F0317
:108F700043F041032B706B7803F0030363F023038A
:108F80006B7008F10201F02305F116006B75FBF719
:108F900017F97C4B00221B68AA73EA732A746A745F
:108FA000AA7498F800206FF043014FF0FF3C29713C
:108FB00029756FF0300003EBC20185F80DC0E87031
:108FC000E87453F832204B68C5F809303846C5F8C4
:108FD000052028F0AAFB384628F08EFC98F80120DE
:108FE00029461632384628F0F0FA3846012128F092
:108FF00027FA384628F0E1F90022002308A938466C
:10900000CDE9082328F048FC072C00F2978026F0D1
:10901000CFF90246DDE90801A31CCDE9040132A91C
:1090200001EB83030AAF53F87FBC53480B4623443C
:10903000214613F87F3C03F07F0306933B4623F061
:1090400074FE384624F00BF94FF0000A804655466E
:109050003846E9B2884535D032AAAB1C02EB83030F
:1090600053F87F2C62B132AB2B44079113F87F3C4D
:1090700003F07F030093002324F065F907990AA801
:1090800032AA05F1140302EB430333F87F2C93B2A9
:10909000C3B192B2002324F0AEF93B4B1B785A1CAB
:1090A00002F0070242450AA80CD132AA143302EB9F
:1090B000430313F87F2C13F87E3C42EA0323334A20
:1090C00022F818300135082DC3D1DDE904233946D3
:1090D000CDE9002328482E4D5A46002323F0D2FF25
:1090E000069B02933846DDE90423CDE900BA24F05B
:1090F000E5F8384624F0F3F851EC100BFBF764FF69
:1091000005EB8405204B28604E3E002E1C7012DDBE
:109110009DF88130F02B0ED11A4B10981B681199D5
:10912000A3F108023833F2E90245A94208BFA04280
:109130000ED09342F7D1174B01221A70484633B034
:10914000BDE8F08F4FF0000956E74FF00009F5E752
:109150009DF88230012BEED1DDF88B3001EE103A14
:10916000DDF8873000EE903ADDF883300AA800EE93
:10917000103A24F099F8DEE7909D0010202300209B
:109180002523002078040020212300208C220020A9
:109190009C22002022230020DC2200202DE9F04F19
:1091A00043F28842504CA3580133B1B0A350074654
:1091B00028F02DFA0DF12B0102460546384628F01D
:1091C00044FA0023002206A93846CDE906230E9E64
:1091D00028F062FB9DF84030302B4FD19DF8413094
:1091E000DDF8428003F07F030493DDE906AB26F04F
:1091F000DFF8F1B2024608AB204623F096FD0027C7
:109200003E460DF147049DF84620F3B29A4238D805
:1092100010AB3548E41A4246002308A9CDE900AB5B
:1092200023F030FF153D049B0293CDE900875246A1
:109230005B4608A82D1B24F041F8002D1BDD30AB48
:10924000234413F8802CF02A15D113F87F3C012B0E
:1092500011D10DF12B031C4408A8D4F81F3001EEE6
:10926000103AD4F81B3000EE903AD4F8173000EEE4
:10927000103A24F019F81D4B01221A7031B0BDE8E4
:10928000F08FD4F8022021784AB16378059103F079
:109290007F03009308A8002324F055F8059994F95A
:1092A0000130002B1DDAB4F8069000231FFA89F272
:1092B00052EA030012D008A8059124F09CF808A8EF
:1092C00023F0CDFF0A4B05991B78834206D1094B49
:1092D0001B788B4204BF084BA3F80090083401367A
:1092E00091E70634FBE700BF909D00102323002088
:1092F000B8D20010B9D20010DCD20010000000007B
:109300002DE9F04F2DED088B0022B7B00023CDE9F9
:109310000223044628F07BF9054608B9002023E023
:10932000DFF854A3152200210DF143002BF02AFE93
:109330002A460DF14301204628F087F9DAF800604B
:1093400013991298D6E90423994208BF90425746D0
:109350000FD0204628F0D8F9204628F0CDFA204634
:1093600028F012F84FF0FF3037B0BDEC088BBDE8A5
:10937000F08FDFF81483149A159BC8F811109DF82C
:109380005810C8F805200229C8F80930C8F80D009F
:1093900000F0F9800429E5D1AD4B9DF859201B78E8
:1093A0009A42BBD1AB4BDDF85A009DF85E201860A5
:1093B0001A71A94B9DF86320DFF8D0B21A710746E5
:1093C000DDF85F0018609DF868308BF80430A34B1F
:1093D00004461D681998A24BCBF800000646186891
:1093E000281AFBF7BDFA41EC180BE01BFBF7B8FAA3
:1093F00041EC190B301BFBF7B3FA9A4B9A4E41EC38
:109400001A0B1868401BFBF7ABFA53EC1A2B41EC14
:109410001B0B51EC180BFBF71DFB53EC1B2B804671
:10942000894651EC190BFBF715FB02460B464046EB
:109430004946FBF757F953EC1A2B8046894651EC05
:10944000180BFBF751F953EC192BFBF74DF953ECC3
:109450001B2BFBF749F902460B4640464946FBF7F2
:1094600023FC824D76A3D3E90023FBF71DFC76A3F2
:10947000D3E90023FBF7EEFA2C78FBF7A5FD06EB0A
:1094800084074FF084083860DDF871203A62784F25
:1094900008FB047204EB4414D2F88030013303F06B
:1094A0001F03C2F8803007EB840001AA202124F0BA
:1094B000FBF928786B4C00EB40106A46202107EB43
:1094C000800024F0D9F92B78DDED007A08FB0378D1
:1094D00003EB4312D8F880100A4407EB820706EB2F
:1094E0008306644A96ED007A01211170DAF80020B3
:1094F00087ED007A77EEC77A92F8D810F0EEE77A27
:1095000019B902EB0311896D01B3DDED016AB1EE0A
:10951000006A66EE866AF4EEE76AF1EE10FA15DD8F
:1095200002EB03110A46C86D526E096E05900326C0
:109530008DF8203004A84FF07A538DF81060069112
:1095400007928DED097A0A9316F058FD4A4B1B6875
:1095500093F8D9309BB12B788BB9DBE9000100F08F
:1095600060431B1AD4E9002061EB0101434DD3187D
:1095700040EB0101C5E90031414B01221A70414B1A
:1095800001221A70CAE632499DF8590009788842CA
:109590007FF4C4AE153D032D0FDD9DF85A10F02960
:1095A0000BD106F1180C0025FCE802018B4208BF24
:1095B000824231D00135082DF6D102AD032388F85F
:1095C000153029469DF8593088F81630204628F085
:1095D00063F93B68D3E900024308510843EAC273C8
:1095E000029AD31A039A62EB0102CDE9023295E89E
:1095F00003001A4B83E80300204628F096F8172250
:109600002046214927F0E1FF2046012127F018FFDD
:10961000204627F0D2FEA5E69DF85B30012BCCD189
:1096200025F0C6FE06EB05163B68B06503EB051397
:10963000179ADA65189A1A66199A5A66BDE700BF32
:109640000000000030C12D420000004A78DEB14128
:109650006024002090240020582400205024002062
:109660009824002078240020B424002061240020C5
:10967000F0010010242300207C040020802400201E
:1096800074250020B02400207525002070240020BF
:1096900070B50446032927D8DFE801F023021B2315
:1096A000FFF736FC144E154D40B1002333701448BB
:1096B000FFF7B2FA002330702B600AE02046FFF774
:1096C00083FB2B680133272B2B60EEDC3378002BD8
:1096D000EDD025F06DFE0020FFF7CEFA4FF0FF3001
:1096E00070BDFFF771FBF4E7064907484FF4847239
:1096F00020F05AFFEDE700BF202300201C230020AC
:10970000DC220020C8770308939703080129F8B5E5
:1097100005461AD002D90239012919D82F4E3046F0
:10972000FFF77AFAD0B9284627F0EEFF284628F04E
:10973000E3F8284627F028FE25F03AFE014628489F
:1097400023F0E8FC4FF0FF30F8BDFFF727FDE5E719
:1097500024492548FB2220F027FFDFE7234C284639
:1097600027F073FD2378727823F07F0343F04103E1
:109770002370637803F0030363F023036370B11C69
:10978000F02304F116006375FAF71AFD3378C4F874
:1097900005306FF030000022154BE0706FF0430190
:1097A000E0744FF0FF3728462171A273E2732274F0
:1097B0006274A2742175C4F80930677327F0B5FF8D
:1097C000284628F099F8727828461632214627F064
:1097D000FCFE284627F0F1FDAEE700BFFC2200208A
:1097E00010D200103078030893970308BA230020A2
:1097F0000000CFBC38B52F4B1C68D4F8DC30002BF0
:10980000054605DA21F01AF900F00100C4F8DC0081
:10981000D4E90423D4F8DC10521843EBE173C4E913
:109820000423254B0021952218462BF0ABFB234B3C
:109830000024C3E90044224BC3E90044214BC3E99F
:109840000044214BC3E90044204BC3E90044204BB2
:109850004122C3E9004402701E4B6FF023024270A4
:109860006FF03002C2701C706FF043021A4B02712D
:1098700020461C70FFF700FA184B19481C70194B52
:10988000202221461C702BF07DFB20222146164809
:109890002BF078FB2022214614482BF073FB4FF469
:1098A0007A71284627F046FC284628F0EDFB104B3D
:1098B0001C7038BD7C0400207525002098240020F1
:1098C00090240020582400205024002078240020D8
:1098D000702400206024002061240020B024002097
:1098E000B424002074250020D4240020F424002077
:1098F000242300202DE9F04FBF4B1A6887B005469E
:109900000C4698461AB925F053FDC8F80000042CFF
:1099100000F26981DFE814F0330005000B006E01EE
:109920006E012846FFF7ECFC07B0BDE8F08F04ACF1
:109930002146284627F094FEB04B1B68D3E900036C
:10994000420842EAC3725908049B9B18059A41EBEE
:109950000202CDE90432AA4B5B7D012B07D0032B19
:109960000BD0A84B187880F001004042DCE7A64BF2
:1099700094E8030083E80300F3E7A44BF8E7A44F5F
:10998000A44EFFF773F93A78A34B04463078002AC7
:1099900040F0AA809B4A1278002A40F0A580DFF8A8
:1099A0005CE29FED9E0ADEF800E000F1100CDEF8AC
:1099B00008E053F82C100122714502FA00F212B2AD
:1099C00024B2B7BF01319443144343F82C1015F06F
:1099D0007FFC32789249A4B28B5C01338B542046D1
:1099E000FFF74AF925F0E4FCD8F8003003F57A7364
:1099F000984200F28B80DFF848B2814CDFF8FCA17E
:109A00005846FFF709F904F10D097E4B04F10508EA
:109A1000002840F0AE801870DAF80030387093F803
:109A2000D9305BB17F4B1B7873B17F49D1E90032EC
:109A300013F1005342F10002C1E9003233780133DF
:109A4000DBB2072B337001D900233370284627F08F
:109A5000FCFB764A0123637513780133DBB2A375EF
:109A60001370DAF80030D3E90412C9F80420327810
:109A7000C4F80D10033203EBC20153F83230C4F8BE
:109A8000053028464B68C8F8043027F04EFE2846BB
:109A900027F032FF17225A49284627F096FDDAF8B8
:109AA000003093F8D920EAB15E4A1278D2B1D3F8E7
:109AB000DC005D4BD3E900230421C1FB0023CDE989
:109AC000042322F4FF7222F0010202F500720492D4
:109AD00006AA12E9030002AB83E8030028460CCB78
:109AE00027F0BFFC012175E001228240144300F100
:109AF0001002002143F8221003EB800393ED000ACB
:109B000015F0E6FBA4B23278494965E725F050FC30
